:0200000480007A
:10000000171100001301010A0528AA851305F00F36
:1000100091C10545970258509382C2FE2380A200E9
:10002000E30A00FE010001000100010001000100DF
:1000300001000100010001000111A94636C4D147A9
:100040003EC6A247324679470545B2973EC8C247E9
:10005000639FE7021307A00A3ACAD24793F7F70F44
:100060003ECCE2476397E70202CE814772473E9754
:100070003ACE8507E39CD7FE72479307D002631CF4
:10008000F700930740063E87FD1775FF01450561A0
:0A00900082800945EDBF0D45DDBF7C
:02000004D058D2
:0400000000000000FC
:040000058000000077
:00000001FF
